{
  "_format": "hh-sol-artifact-1",
  "contractName": "MyNFT",
  "sourceName": "contracts/MyNFT.sol",
  "abi": [
    {
      "inputs": [],
      "stateMutability": "nonpayable",
      "type": "constructor"
    },
    {
      "anonymous": false,
      "inputs": [
        {
          "indexed": false,
          "internalType": "address",
          "name": "previousAdmin",
          "type": "address"
        },
        {
          "indexed": false,
          "internalType": "address",
          "name": "newAdmin",
          "type": "address"
        }
      ],
      "name": "AdminChanged",
      "type": "event"
    },
    {
      "anonymous": false,
      "inputs": [
        {
          "indexed": true,
          "internalType": "address",
          "name": "owner",
          "type": "address"
        },
        {
          "indexed": true,
          "internalType": "address",
          "name": "approved",
          "type": "address"
        },
        {
          "indexed": true,
          "internalType": "uint256",
          "name": "tokenId",
          "type": "uint256"
        }
      ],
      "name": "Approval",
      "type": "event"
    },
    {
      "anonymous": false,
      "inputs": [
        {
          "indexed": true,
          "internalType": "address",
          "name": "owner",
          "type": "address"
        },
        {
          "indexed": true,
          "internalType": "address",
          "name": "operator",
          "type": "address"
        },
        {
          "indexed": false,
          "internalType": "bool",
          "name": "approved",
          "type": "bool"
        }
      ],
      "name": "ApprovalForAll",
      "type": "event"
    },
    {
      "anonymous": false,
      "inputs": [
        {
          "indexed": true,
          "internalType": "address",
          "name": "to",
          "type": "address"
        },
        {
          "indexed": true,
          "internalType": "uint256",
          "name": "tokenId",
          "type": "uint256"
        }
      ],
      "name": "Attest",
      "type": "event"
    },
    {
      "anonymous": false,
      "inputs": [
        {
          "indexed": true,
          "internalType": "address",
          "name": "beacon",
          "type": "address"
        }
      ],
      "name": "BeaconUpgraded",
      "type": "event"
    },
    {
      "anonymous": false,
      "inputs": [
        {
          "indexed": false,
          "internalType": "uint8",
          "name": "version",
          "type": "uint8"
        }
      ],
      "name": "Initialized",
      "type": "event"
    },
    {
      "anonymous": false,
      "inputs": [
        {
          "indexed": true,
          "internalType": "address",
          "name": "previousOwner",
          "type": "address"
        },
        {
          "indexed": true,
          "internalType": "address",
          "name": "newOwner",
          "type": "address"
        }
      ],
      "name": "OwnershipTransferred",
      "type": "event"
    },
    {
      "anonymous": false,
      "inputs": [
        {
          "indexed": true,
          "internalType": "address",
          "name": "to",
          "type": "address"
        },
        {
          "indexed": true,
          "internalType": "uint256",
          "name": "tokenId",
          "type": "uint256"
        }
      ],
      "name": "Revoke",
      "type": "event"
    },
    {
      "anonymous": false,
      "inputs": [
        {
          "indexed": true,
          "internalType": "address",
          "name": "from",
          "type": "address"
        },
        {
          "indexed": true,
          "internalType": "address",
          "name": "to",
          "type": "address"
        },
        {
          "indexed": true,
          "internalType": "uint256",
          "name": "tokenId",
          "type": "uint256"
        }
      ],
      "name": "Transfer",
      "type": "event"
    },
    {
      "anonymous": false,
      "inputs": [
        {
          "indexed": true,
          "internalType": "address",
          "name": "implementation",
          "type": "address"
        }
      ],
      "name": "Upgraded",
      "type": "event"
    },
    {
      "inputs": [
        {
          "internalType": "address",
          "name": "to",
          "type": "address"
        },
        {
          "internalType": "uint256",
          "name": "tokenId",
          "type": "uint256"
        }
      ],
      "name": "approve",
      "outputs": [],
      "stateMutability": "nonpayable",
      "type": "function"
    },
    {
      "inputs": [
        {
          "internalType": "address",
          "name": "owner",
          "type": "address"
        }
      ],
      "name": "balanceOf",
      "outputs": [
        {
          "internalType": "uint256",
          "name": "",
          "type": "uint256"
        }
      ],
      "stateMutability": "view",
      "type": "function"
    },
    {
      "inputs": [
        {
          "internalType": "uint256",
          "name": "tokenId",
          "type": "uint256"
        }
      ],
      "name": "burn",
      "outputs": [],
      "stateMutability": "nonpayable",
      "type": "function"
    },
    {
      "inputs": [
        {
          "internalType": "uint256",
          "name": "tokenId",
          "type": "uint256"
        }
      ],
      "name": "getApproved",
      "outputs": [
        {
          "internalType": "address",
          "name": "",
          "type": "address"
        }
      ],
      "stateMutability": "view",
      "type": "function"
    },
    {
      "inputs": [],
      "name": "getIdCount",
      "outputs": [
        {
          "internalType": "uint256",
          "name": "",
          "type": "uint256"
        }
      ],
      "stateMutability": "view",
      "type": "function"
    },
    {
      "inputs": [],
      "name": "initialize",
      "outputs": [],
      "stateMutability": "nonpayable",
      "type": "function"
    },
    {
      "inputs": [
        {
          "internalType": "address",
          "name": "owner",
          "type": "address"
        },
        {
          "internalType": "address",
          "name": "operator",
          "type": "address"
        }
      ],
      "name": "isApprovedForAll",
      "outputs": [
        {
          "internalType": "bool",
          "name": "",
          "type": "bool"
        }
      ],
      "stateMutability": "view",
      "type": "function"
    },
    {
      "inputs": [],
      "name": "name",
      "outputs": [
        {
          "internalType": "string",
          "name": "",
          "type": "string"
        }
      ],
      "stateMutability": "view",
      "type": "function"
    },
    {
      "inputs": [],
      "name": "owner",
      "outputs": [
        {
          "internalType": "address",
          "name": "",
          "type": "address"
        }
      ],
      "stateMutability": "view",
      "type": "function"
    },
    {
      "inputs": [
        {
          "internalType": "uint256",
          "name": "tokenId",
          "type": "uint256"
        }
      ],
      "name": "ownerOf",
      "outputs": [
        {
          "internalType": "address",
          "name": "",
          "type": "address"
        }
      ],
      "stateMutability": "view",
      "type": "function"
    },
    {
      "inputs": [],
      "name": "proxiableUUID",
      "outputs": [
        {
          "internalType": "bytes32",
          "name": "",
          "type": "bytes32"
        }
      ],
      "stateMutability": "view",
      "type": "function"
    },
    {
      "inputs": [],
      "name": "renounceOwnership",
      "outputs": [],
      "stateMutability": "nonpayable",
      "type": "function"
    },
    {
      "inputs": [
        {
          "internalType": "uint256",
          "name": "tokenId",
          "type": "uint256"
        }
      ],
      "name": "revoke",
      "outputs": [],
      "stateMutability": "nonpayable",
      "type": "function"
    },
    {
      "inputs": [
        {
          "internalType": "address",
          "name": "to",
          "type": "address"
        },
        {
          "internalType": "string",
          "name": "uri",
          "type": "string"
        }
      ],
      "name": "safeMint",
      "outputs": [],
      "stateMutability": "nonpayable",
      "type": "function"
    },
    {
      "inputs": [
        {
          "internalType": "address",
          "name": "from",
          "type": "address"
        },
        {
          "internalType": "address",
          "name": "to",
          "type": "address"
        },
        {
          "internalType": "uint256",
          "name": "tokenId",
          "type": "uint256"
        }
      ],
      "name": "safeTransferFrom",
      "outputs": [],
      "stateMutability": "nonpayable",
      "type": "function"
    },
    {
      "inputs": [
        {
          "internalType": "address",
          "name": "from",
          "type": "address"
        },
        {
          "internalType": "address",
          "name": "to",
          "type": "address"
        },
        {
          "internalType": "uint256",
          "name": "tokenId",
          "type": "uint256"
        },
        {
          "internalType": "bytes",
          "name": "data",
          "type": "bytes"
        }
      ],
      "name": "safeTransferFrom",
      "outputs": [],
      "stateMutability": "nonpayable",
      "type": "function"
    },
    {
      "inputs": [
        {
          "internalType": "address",
          "name": "operator",
          "type": "address"
        },
        {
          "internalType": "bool",
          "name": "approved",
          "type": "bool"
        }
      ],
      "name": "setApprovalForAll",
      "outputs": [],
      "stateMutability": "nonpayable",
      "type": "function"
    },
    {
      "inputs": [
        {
          "internalType": "bytes4",
          "name": "interfaceId",
          "type": "bytes4"
        }
      ],
      "name": "supportsInterface",
      "outputs": [
        {
          "internalType": "bool",
          "name": "",
          "type": "bool"
        }
      ],
      "stateMutability": "view",
      "type": "function"
    },
    {
      "inputs": [],
      "name": "symbol",
      "outputs": [
        {
          "internalType": "string",
          "name": "",
          "type": "string"
        }
      ],
      "stateMutability": "view",
      "type": "function"
    },
    {
      "inputs": [
        {
          "internalType": "uint256",
          "name": "tokenId",
          "type": "uint256"
        }
      ],
      "name": "tokenURI",
      "outputs": [
        {
          "internalType": "string",
          "name": "",
          "type": "string"
        }
      ],
      "stateMutability": "view",
      "type": "function"
    },
    {
      "inputs": [
        {
          "internalType": "address",
          "name": "from",
          "type": "address"
        },
        {
          "internalType": "address",
          "name": "to",
          "type": "address"
        },
        {
          "internalType": "uint256",
          "name": "tokenId",
          "type": "uint256"
        }
      ],
      "name": "transferFrom",
      "outputs": [],
      "stateMutability": "nonpayable",
      "type": "function"
    },
    {
      "inputs": [
        {
          "internalType": "address",
          "name": "newOwner",
          "type": "address"
        }
      ],
      "name": "transferOwnership",
      "outputs": [],
      "stateMutability": "nonpayable",
      "type": "function"
    },
    {
      "inputs": [
        {
          "internalType": "address",
          "name": "newImplementation",
          "type": "address"
        }
      ],
      "name": "upgradeTo",
      "outputs": [],
      "stateMutability": "nonpayable",
      "type": "function"
    },
    {
      "inputs": [
        {
          "internalType": "address",
          "name": "newImplementation",
          "type": "address"
        },
        {
          "internalType": "bytes",
          "name": "data",
          "type": "bytes"
        }
      ],
      "name": "upgradeToAndCall",
      "outputs": [],
      "stateMutability": "payable",
      "type": "function"
    }
  ],
  "bytecode": "0x60a06040523073ffffffffffffffffffffffffffffffffffffffff1660809073ffffffffffffffffffffffffffffffffffffffff168152503480156200004457600080fd5b50620000556200005b60201b60201c565b62000206565b600060019054906101000a900460ff1615620000ae576040517f08c379a0000000000000000000000000000000000000000000000000000000008152600401620000a590620001a9565b60405180910390fd5b60ff801660008054906101000a900460ff1660ff161015620001205760ff6000806101000a81548160ff021916908360ff1602179055507f7f26b83ff96e1f2b6a682f133852f6798a09c465da95921460cefb384740249860ff604051620001179190620001e9565b60405180910390a15b565b600082825260208201905092915050565b7f496e697469616c697a61626c653a20636f6e747261637420697320696e69746960008201527f616c697a696e6700000000000000000000000000000000000000000000000000602082015250565b60006200019160278362000122565b91506200019e8262000133565b604082019050919050565b60006020820190508181036000830152620001c48162000182565b9050919050565b600060ff82169050919050565b620001e381620001cb565b82525050565b6000602082019050620002006000830184620001d8565b92915050565b6080516147f16200023e600039600081816108c00152818161094e01528181610ac401528181610b520152610c0201526147f16000f3fe60806040526004361061014b5760003560e01c806370a08231116100b6578063b88d4fde1161006f578063b88d4fde14610459578063c87b56dd14610482578063d204c45e146104bf578063db5890ee146104e8578063e985e9c514610513578063f2fde38b146105505761014b565b806370a082311461036f578063715018a6146103ac5780638129fc1c146103c35780638da5cb5b146103da57806395d89b4114610405578063a22cb465146104305761014b565b80633659cfe6116101085780633659cfe61461027057806342842e0e1461029957806342966c68146102c25780634f1ef286146102eb57806352d1902d146103075780636352211e146103325761014b565b806301ffc9a71461015057806306fdde031461018d578063081812fc146101b8578063095ea7b3146101f557806320c5429b1461021e57806323b872dd14610247575b600080fd5b34801561015c57600080fd5b5061017760048036038101906101729190612e8e565b610579565b6040516101849190612ed6565b60405180910390f35b34801561019957600080fd5b506101a261065b565b6040516101af9190612f81565b60405180910390f35b3480156101c457600080fd5b506101df60048036038101906101da9190612fd9565b6106ed565b6040516101ec9190613047565b60405180910390f35b34801561020157600080fd5b5061021c6004803603810190610217919061308e565b610733565b005b34801561022a57600080fd5b5061024560048036038101906102409190612fd9565b61084a565b005b34801561025357600080fd5b5061026e600480360381019061026991906130ce565b61085e565b005b34801561027c57600080fd5b5061029760048036038101906102929190613121565b6108be565b005b3480156102a557600080fd5b506102c060048036038101906102bb91906130ce565b610a46565b005b3480156102ce57600080fd5b506102e960048036038101906102e49190612fd9565b610a66565b005b61030560048036038101906103009190613283565b610ac2565b005b34801561031357600080fd5b5061031c610bfe565b60405161032991906132f8565b60405180910390f35b34801561033e57600080fd5b5061035960048036038101906103549190612fd9565b610cb7565b6040516103669190613047565b60405180910390f35b34801561037b57600080fd5b5061039660048036038101906103919190613121565b610d3d565b6040516103a39190613322565b60405180910390f35b3480156103b857600080fd5b506103c1610df4565b005b3480156103cf57600080fd5b506103d8610e08565b005b3480156103e657600080fd5b506103ef610fd2565b6040516103fc9190613047565b60405180910390f35b34801561041157600080fd5b5061041a610ffc565b6040516104279190612f81565b60405180910390f35b34801561043c57600080fd5b5061045760048036038101906104529190613369565b61108e565b005b34801561046557600080fd5b50610480600480360381019061047b91906133a9565b6110a4565b005b34801561048e57600080fd5b506104a960048036038101906104a49190612fd9565b611106565b6040516104b69190612f81565b60405180910390f35b3480156104cb57600080fd5b506104e660048036038101906104e191906134cd565b611118565b005b3480156104f457600080fd5b506104fd611153565b60405161050a9190613322565b60405180910390f35b34801561051f57600080fd5b5061053a60048036038101906105359190613529565b61116a565b6040516105479190612ed6565b60405180910390f35b34801561055c57600080fd5b5061057760048036038101906105729190613121565b6111fe565b005b60007f80ac58cd000000000000000000000000000000000000000000000000000000007bffffffffffffffffffffffffffffffffffffffffffffffffffffffff1916827bffffffffffffffffffffffffffffffffffffffffffffffffffffffff1916148061064457507f5b5e139f000000000000000000000000000000000000000000000000000000007bffffffffffffffffffffffffffffffffffffffffffffffffffffffff1916827bffffffffffffffffffffffffffffffffffffffffffffffffffffffff1916145b80610654575061065382611281565b5b9050919050565b60606065805461066a90613598565b80601f016020809104026020016040519081016040528092919081815260200182805461069690613598565b80156106e35780601f106106b8576101008083540402835291602001916106e3565b820191906000526020600020905b8154815290600101906020018083116106c657829003601f168201915b5050505050905090565b60006106f8826112eb565b6069600083815260200190815260200160002060009054906101000a900473ffffffffffffffffffffffffffffffffffffffff169050919050565b600061073e82610cb7565b90508073ffffffffffffffffffffffffffffffffffffffff168373ffffffffffffffffffffffffffffffffffffffff16036107ae576040517f08c379a00000000000000000000000000000000000000000000000000000000081526004016107a59061363b565b60405180910390fd5b8073ffffffffffffffffffffffffffffffffffffffff166107cd611336565b73ffffffffffffffffffffffffffffffffffffffff1614806107fc57506107fb816107f6611336565b61116a565b5b61083b576040517f08c379a0000000000000000000000000000000000000000000000000000000008152600401610832906136cd565b60405180910390fd5b610845838361133e565b505050565b6108526113f7565b61085b81611475565b50565b61086f610869611336565b82611481565b6108ae576040517f08c379a00000000000000000000000000000000000000000000000000000000081526004016108a59061375f565b60405180910390fd5b6108b9838383611516565b505050565b7f000000000000000000000000000000000000000000000000000000000000000073ffffffffffffffffffffffffffffffffffffffff163073ffffffffffffffffffffffffffffffffffffffff160361094c576040517f08c379a0000000000000000000000000000000000000000000000000000000008152600401610943906137f1565b60405180910390fd5b7f000000000000000000000000000000000000000000000000000000000000000073ffffffffffffffffffffffffffffffffffffffff1661098b61180b565b73ffffffffffffffffffffffffffffffffffffffff16146109e1576040517f08c379a00000000000000000000000000000000000000000000000000000000081526004016109d890613883565b60405180910390fd5b6109ea81611862565b610a4381600067ffffffffffffffff811115610a0957610a08613158565b5b6040519080825280601f01601f191660200182016040528015610a3b5781602001600182028036833780820191505090505b50600061186d565b50565b610a61838383604051806020016040528060008152506110a4565b505050565b610a77610a71611336565b82611481565b610ab6576040517f08c379a0000000000000000000000000000000000000000000000000000000008152600401610aad9061375f565b60405180910390fd5b610abf81611475565b50565b7f000000000000000000000000000000000000000000000000000000000000000073ffffffffffffffffffffffffffffffffffffffff163073ffffffffffffffffffffffffffffffffffffffff1603610b50576040517f08c379a0000000000000000000000000000000000000000000000000000000008152600401610b47906137f1565b60405180910390fd5b7f000000000000000000000000000000000000000000000000000000000000000073ffffffffffffffffffffffffffffffffffffffff16610b8f61180b565b73ffffffffffffffffffffffffffffffffffffffff1614610be5576040517f08c379a0000000000000000000000000000000000000000000000000000000008152600401610bdc90613883565b60405180910390fd5b610bee82611862565b610bfa8282600161186d565b5050565b60007f000000000000000000000000000000000000000000000000000000000000000073ffffffffffffffffffffffffffffffffffffffff163073ffffffffffffffffffffffffffffffffffffffff1614610c8e576040517f08c379a0000000000000000000000000000000000000000000000000000000008152600401610c8590613915565b60405180910390fd5b7f360894a13ba1a3210667c828492db98dca3e2076cc3735a920a3ca505d382bbc60001b905090565b600080610cc3836119db565b9050600073ffffffffffffffffffffffffffffffffffffffff168173ffffffffffffffffffffffffffffffffffffffff1603610d34576040517f08c379a0000000000000000000000000000000000000000000000000000000008152600401610d2b90613981565b60405180910390fd5b80915050919050565b60008073ffffffffffffffffffffffffffffffffffffffff168273ffffffffffffffffffffffffffffffffffffffff1603610dad576040517f08c379a0000000000000000000000000000000000000000000000000000000008152600401610da490613a13565b60405180910390fd5b606860008373ffffffffffffffffffffffffffffffffffffffff1673ffffffffffffffffffffffffffffffffffffffff168152602001908152602001600020549050919050565b610dfc6113f7565b610e066000611a18565b565b60008060019054906101000a900460ff16159050808015610e395750600160008054906101000a900460ff1660ff16105b80610e665750610e4830611ade565b158015610e655750600160008054906101000a900460ff1660ff16145b5b610ea5576040517f08c379a0000000000000000000000000000000000000000000000000000000008152600401610e9c90613aa5565b60405180910390fd5b60016000806101000a81548160ff021916908360ff1602179055508015610ee2576001600060016101000a81548160ff0219169083151502179055505b610f566040518060400160405280600781526020017f4d79546f6b656e000000000000000000000000000000000000000000000000008152506040518060400160405280600381526020017f5453540000000000000000000000000000000000000000000000000000000000815250611b01565b610f5e611b5e565b610f66611baf565b610f6e611c00565b610f76611c59565b8015610fcf5760008060016101000a81548160ff0219169083151502179055507f7f26b83ff96e1f2b6a682f133852f6798a09c465da95921460cefb38474024986001604051610fc69190613b17565b60405180910390a15b50565b600060fb60009054906101000a900473ffffffffffffffffffffffffffffffffffffffff16905090565b60606066805461100b90613598565b80601f016020809104026020016040519081016040528092919081815260200182805461103790613598565b80156110845780601f1061105957610100808354040283529160200191611084565b820191906000526020600020905b81548152906001019060200180831161106757829003601f168201915b5050505050905090565b6110a0611099611336565b8383611caa565b5050565b6110b56110af611336565b83611481565b6110f4576040517f08c379a00000000000000000000000000000000000000000000000000000000081526004016110eb9061375f565b60405180910390fd5b61110084848484611e16565b50505050565b606061111182611e72565b9050919050565b6111206113f7565b600061112d610191611f84565b905061113a610191611f92565b6111448382611fa8565b61114e8183611fc6565b505050565b600080611161610191611f84565b90508091505090565b6000606a60008473ffffffffffffffffffffffffffffffffffffffff1673ffffffffffffffffffffffffffffffffffffffff16815260200190815260200160002060008373ffffffffffffffffffffffffffffffffffffffff1673ffffffffffffffffffffffffffffffffffffffff16815260200190815260200160002060009054906101000a900460ff16905092915050565b6112066113f7565b600073ffffffffffffffffffffffffffffffffffffffff168173ffffffffffffffffffffffffffffffffffffffff1603611275576040517f08c379a000000000000000000000000000000000000000000000000000000000815260040161126c90613ba4565b60405180910390fd5b61127e81611a18565b50565b60007f01ffc9a7000000000000000000000000000000000000000000000000000000007bffffffffffffffffffffffffffffffffffffffffffffffffffffffff1916827bffffffffffffffffffffffffffffffffffffffffffffffffffffffff1916149050919050565b6112f481612033565b611333576040517f08c379a000000000000000000000000000000000000000000000000000000000815260040161132a90613981565b60405180910390fd5b50565b600033905090565b816069600083815260200190815260200160002060006101000a81548173ffffffffffffffffffffffffffffffffffffffff021916908373ffffffffffffffffffffffffffffffffffffffff160217905550808273ffffffffffffffffffffffffffffffffffffffff166113b183610cb7565b73ffffffffffffffffffffffffffffffffffffffff167f8c5be1e5ebec7d5bd14f71427d1e84f3dd0314c0f7b2291e5b200ac8c7c3b92560405160405180910390a45050565b6113ff611336565b73ffffffffffffffffffffffffffffffffffffffff1661141d610fd2565b73ffffffffffffffffffffffffffffffffffffffff1614611473576040517f08c379a000000000000000000000000000000000000000000000000000000000815260040161146a90613c10565b60405180910390fd5b565b61147e81612074565b50565b60008061148d83610cb7565b90508073ffffffffffffffffffffffffffffffffffffffff168473ffffffffffffffffffffffffffffffffffffffff1614806114cf57506114ce818561116a565b5b8061150d57508373ffffffffffffffffffffffffffffffffffffffff166114f5846106ed565b73ffffffffffffffffffffffffffffffffffffffff16145b91505092915050565b8273ffffffffffffffffffffffffffffffffffffffff1661153682610cb7565b73ffffffffffffffffffffffffffffffffffffffff161461158c576040517f08c379a000000000000000000000000000000000000000000000000000000000815260040161158390613ca2565b60405180910390fd5b600073ffffffffffffffffffffffffffffffffffffffff168273ffffffffffffffffffffffffffffffffffffffff16036115fb576040517f08c379a00000000000000000000000000000000000000000000000000000000081526004016115f290613d34565b60405180910390fd5b6116068383836120c7565b8273ffffffffffffffffffffffffffffffffffffffff1661162682610cb7565b73ffffffffffffffffffffffffffffffffffffffff161461167c576040517f08c379a000000000000000000000000000000000000000000000000000000000815260040161167390613ca2565b60405180910390fd5b6069600082815260200190815260200160002060006101000a81549073ffffffffffffffffffffffffffffffffffffffff02191690556001606860008573ffffffffffffffffffffffffffffffffffffffff1673ffffffffffffffffffffffffffffffffffffffff168152602001908152602001600020600082825403925050819055506001606860008473ffffffffffffffffffffffffffffffffffffffff1673ffffffffffffffffffffffffffffffffffffffff16815260200190815260200160002060008282540192505081905550816067600083815260200190815260200160002060006101000a81548173ffffffffffffffffffffffffffffffffffffffff021916908373ffffffffffffffffffffffffffffffffffffffff160217905550808273ffffffffffffffffffffffffffffffffffffffff168473ffffffffffffffffffffffffffffffffffffffff167fddf252ad1be2c89b69c2b068fc378daa952ba7f163c4a11628f55a4df523b3ef60405160405180910390a4611806838383612172565b505050565b60006118397f360894a13ba1a3210667c828492db98dca3e2076cc3735a920a3ca505d382bbc60001b61226e565b60000160009054906101000a900473ffffffffffffffffffffffffffffffffffffffff16905090565b61186a6113f7565b50565b6118997f4910fdfa16fed3260ed0e7147f7cc6da11a60208b5b9406d12a635614ffd914360001b612278565b60000160009054906101000a900460ff16156118bd576118b883612282565b6119d6565b8273ffffffffffffffffffffffffffffffffffffffff166352d1902d6040518163ffffffff1660e01b8152600401602060405180830381865afa92505050801561192557506040513d601f19601f820116820180604052508101906119229190613d80565b60015b611964576040517f08c379a000000000000000000000000000000000000000000000000000000000815260040161195b90613e1f565b60405180910390fd5b7f360894a13ba1a3210667c828492db98dca3e2076cc3735a920a3ca505d382bbc60001b81146119c9576040517f08c379a00000000000000000000000000000000000000000000000000000000081526004016119c090613eb1565b60405180910390fd5b506119d583838361233b565b5b505050565b60006067600083815260200190815260200160002060009054906101000a900473ffffffffffffffffffffffffffffffffffffffff169050919050565b600060fb60009054906101000a900473ffffffffffffffffffffffffffffffffffffffff1690508160fb60006101000a81548173ffffffffffffffffffffffffffffffffffffffff021916908373ffffffffffffffffffffffffffffffffffffffff1602179055508173ffffffffffffffffffffffffffffffffffffffff168173ffffffffffffffffffffffffffffffffffffffff167f8be0079c531659141344cd1fd0a4f28419497f9722a3daafe3b4186f6b6457e060405160405180910390a35050565b6000808273ffffffffffffffffffffffffffffffffffffffff163b119050919050565b600060019054906101000a900460ff16611b50576040517f08c379a0000000000000000000000000000000000000000000000000000000008152600401611b4790613f43565b60405180910390fd5b611b5a8282612367565b5050565b600060019054906101000a900460ff16611bad576040517f08c379a0000000000000000000000000000000000000000000000000000000008152600401611ba490613f43565b60405180910390fd5b565b600060019054906101000a900460ff16611bfe576040517f08c379a0000000000000000000000000000000000000000000000000000000008152600401611bf590613f43565b60405180910390fd5b565b600060019054906101000a900460ff16611c4f576040517f08c379a0000000000000000000000000000000000000000000000000000000008152600401611c4690613f43565b60405180910390fd5b611c576123da565b565b600060019054906101000a900460ff16611ca8576040517f08c379a0000000000000000000000000000000000000000000000000000000008152600401611c9f90613f43565b60405180910390fd5b565b8173ffffffffffffffffffffffffffffffffffffffff168373ffffffffffffffffffffffffffffffffffffffff1603611d18576040517f08c379a0000000000000000000000000000000000000000000000000000000008152600401611d0f90613faf565b60405180910390fd5b80606a60008573ffffffffffffffffffffffffffffffffffffffff1673ffffffffffffffffffffffffffffffffffffffff16815260200190815260200160002060008473ffffffffffffffffffffffffffffffffffffffff1673ffffffffffffffffffffffffffffffffffffffff16815260200190815260200160002060006101000a81548160ff0219169083151502179055508173ffffffffffffffffffffffffffffffffffffffff168373ffffffffffffffffffffffffffffffffffffffff167f17307eab39ab6107e8899845ad3d59bd9653f200f220920489ca2b5937696c3183604051611e099190612ed6565b60405180910390a3505050565b611e21848484611516565b611e2d8484848461243b565b611e6c576040517f08c379a0000000000000000000000000000000000000000000000000000000008152600401611e6390614041565b60405180910390fd5b50505050565b6060611e7d826112eb565b6000609760008481526020019081526020016000208054611e9d90613598565b80601f0160208091040260200160405190810160405280929190818152602001828054611ec990613598565b8015611f165780601f10611eeb57610100808354040283529160200191611f16565b820191906000526020600020905b815481529060010190602001808311611ef957829003601f168201915b505050505090506000611f276125c2565b90506000815103611f3c578192505050611f7f565b600082511115611f71578082604051602001611f5992919061409d565b60405160208183030381529060405292505050611f7f565b611f7a846125d9565b925050505b919050565b600081600001549050919050565b6001816000016000828254019250508190555050565b611fc2828260405180602001604052806000815250612641565b5050565b611fcf82612033565b61200e576040517f08c379a000000000000000000000000000000000000000000000000000000000815260040161200590614133565b60405180910390fd5b8060976000848152602001908152602001600020908161202e91906142f5565b505050565b60008073ffffffffffffffffffffffffffffffffffffffff16612055836119db565b73ffffffffffffffffffffffffffffffffffffffff1614159050919050565b61207d8161269c565b600060976000838152602001908152602001600020805461209d90613598565b9050146120c4576097600082815260200190815260200160002060006120c39190612dc5565b5b50565b600073ffffffffffffffffffffffffffffffffffffffff168373ffffffffffffffffffffffffffffffffffffffff16148061212e5750600073ffffffffffffffffffffffffffffffffffffffff168273ffffffffffffffffffffffffffffffffffffffff16145b61216d576040517f08c379a000000000000000000000000000000000000000000000000000000000815260040161216490614413565b60405180910390fd5b505050565b600073ffffffffffffffffffffffffffffffffffffffff168373ffffffffffffffffffffffffffffffffffffffff16036121ef57808273ffffffffffffffffffffffffffffffffffffffff167fe9274a84b19e9428826de6bae8c48329354f8f0e73f771b97cae2d9dccd45a2760405160405180910390a3612269565b600073ffffffffffffffffffffffffffffffffffffffff168273ffffffffffffffffffffffffffffffffffffffff160361226857808273ffffffffffffffffffffffffffffffffffffffff167fec9ab91322523c899ede7830ec9bfc992b5981cdcc27b91162fb23de5791117b60405160405180910390a35b5b505050565b6000819050919050565b6000819050919050565b61228b81611ade565b6122ca576040517f08c379a00000000000000000000000000000000000000000000000000000000081526004016122c1906144a5565b60405180910390fd5b806122f77f360894a13ba1a3210667c828492db98dca3e2076cc3735a920a3ca505d382bbc60001b61226e565b60000160006101000a81548173ffffffffffffffffffffffffffffffffffffffff021916908373ffffffffffffffffffffffffffffffffffffffff16021790555050565b612344836127e6565b6000825111806123515750805b15612362576123608383612835565b505b505050565b600060019054906101000a900460ff166123b6576040517f08c379a00000000000000000000000000000000000000000000000000000000081526004016123ad90613f43565b60405180910390fd5b81606590816123c591906142f5565b5080606690816123d591906142f5565b505050565b600060019054906101000a900460ff16612429576040517f08c379a000000000000000000000000000000000000000000000000000000000815260040161242090613f43565b60405180910390fd5b612439612434611336565b611a18565b565b600061245c8473ffffffffffffffffffffffffffffffffffffffff16611ade565b156125b5578373ffffffffffffffffffffffffffffffffffffffff1663150b7a02612485611336565b8786866040518563ffffffff1660e01b81526004016124a7949392919061451a565b6020604051808303816000875af19250505080156124e357506040513d601f19601f820116820180604052508101906124e0919061457b565b60015b612565573d8060008114612513576040519150601f19603f3d011682016040523d82523d6000602084013e612518565b606091505b50600081510361255d576040517f08c379a000000000000000000000000000000000000000000000000000000000815260040161255490614041565b60405180910390fd5b805181602001fd5b63150b7a0260e01b7bffffffffffffffffffffffffffffffffffffffffffffffffffffffff1916817bffffffffffffffffffffffffffffffffffffffffffffffffffffffff1916149150506125ba565b600190505b949350505050565b606060405180602001604052806000815250905090565b60606125e4826112eb565b60006125ee6125c2565b9050600081511161260e5760405180602001604052806000815250612639565b8061261884612919565b60405160200161262992919061409d565b6040516020818303038152906040525b915050919050565b61264b83836129e7565b612658600084848461243b565b612697576040517f08c379a000000000000000000000000000000000000000000000000000000000815260040161268e90614041565b60405180910390fd5b505050565b60006126a782610cb7565b90506126b5816000846120c7565b6126be82610cb7565b90506069600083815260200190815260200160002060006101000a81549073ffffffffffffffffffffffffffffffffffffffff02191690556001606860008373ffffffffffffffffffffffffffffffffffffffff1673ffffffffffffffffffffffffffffffffffffffff168152602001908152602001600020600082825403925050819055506067600083815260200190815260200160002060006101000a81549073ffffffffffffffffffffffffffffffffffffffff021916905581600073ffffffffffffffffffffffffffffffffffffffff168273ffffffffffffffffffffffffffffffffffffffff167fddf252ad1be2c89b69c2b068fc378daa952ba7f163c4a11628f55a4df523b3ef60405160405180910390a46127e281600084612172565b5050565b6127ef81612282565b8073ffffffffffffffffffffffffffffffffffffffff167fbc7cd75a20ee27fd9adebab32041f755214dbc6bffa90cc0225b39da2e5c2d3b60405160405180910390a250565b606061284083611ade565b61287f576040517f08c379a00000000000000000000000000000000000000000000000000000000081526004016128769061461a565b60405180910390fd5b6000808473ffffffffffffffffffffffffffffffffffffffff16846040516128a79190614676565b600060405180830381855af49150503d80600081146128e2576040519150601f19603f3d011682016040523d82523d6000602084013e6128e7565b606091505b509150915061290f828260405180606001604052806027815260200161479560279139612c00565b9250505092915050565b60606000600161292884612c22565b01905060008167ffffffffffffffff81111561294757612946613158565b5b6040519080825280601f01601f1916602001820160405280156129795781602001600182028036833780820191505090505b509050600082602001820190505b6001156129dc578080600190039150507f3031323334353637383961626364656600000000000000000000000000000000600a86061a8153600a85816129d0576129cf61468d565b5b04945060008503612987575b819350505050919050565b600073ffffffffffffffffffffffffffffffffffffffff168273ffffffffffffffffffffffffffffffffffffffff1603612a56576040517f08c379a0000000000000000000000000000000000000000000000000000000008152600401612a4d90614708565b60405180910390fd5b612a5f81612033565b15612a9f576040517f08c379a0000000000000000000000000000000000000000000000000000000008152600401612a9690614774565b60405180910390fd5b612aab600083836120c7565b612ab481612033565b15612af4576040517f08c379a0000000000000000000000000000000000000000000000000000000008152600401612aeb90614774565b60405180910390fd5b6001606860008473ffffffffffffffffffffffffffffffffffffffff1673ffffffffffffffffffffffffffffffffffffffff16815260200190815260200160002060008282540192505081905550816067600083815260200190815260200160002060006101000a81548173ffffffffffffffffffffffffffffffffffffffff021916908373ffffffffffffffffffffffffffffffffffffffff160217905550808273ffffffffffffffffffffffffffffffffffffffff16600073ffffffffffffffffffffffffffffffffffffffff167fddf252ad1be2c89b69c2b068fc378daa952ba7f163c4a11628f55a4df523b3ef60405160405180910390a4612bfc60008383612172565b5050565b60608315612c1057829050612c1b565b612c1a8383612d75565b5b9392505050565b600080600090507a184f03e93ff9f4daa797ed6e38ed64bf6a1f0100000000000000008310612c80577a184f03e93ff9f4daa797ed6e38ed64bf6a1f0100000000000000008381612c7657612c7561468d565b5b0492506040810190505b6d04ee2d6d415b85acef81000000008310612cbd576d04ee2d6d415b85acef81000000008381612cb357612cb261468d565b5b0492506020810190505b662386f26fc100008310612cec57662386f26fc100008381612ce257612ce161468d565b5b0492506010810190505b6305f5e1008310612d15576305f5e1008381612d0b57612d0a61468d565b5b0492506008810190505b6127108310612d3a576127108381612d3057612d2f61468d565b5b0492506004810190505b60648310612d5d5760648381612d5357612d5261468d565b5b0492506002810190505b600a8310612d6c576001810190505b80915050919050565b600082511115612d885781518083602001fd5b806040517f08c379a0000000000000000000000000000000000000000000000000000000008152600401612dbc9190612f81565b60405180910390fd5b508054612dd190613598565b6000825580601f10612de35750612e02565b601f016020900490600052602060002090810190612e019190612e05565b5b50565b5b80821115612e1e576000816000905550600101612e06565b5090565b6000604051905090565b600080fd5b600080fd5b60007fffffffff0000000000000000000000000000000000000000000000000000000082169050919050565b612e6b81612e36565b8114612e7657600080fd5b50565b600081359050612e8881612e62565b92915050565b600060208284031215612ea457612ea3612e2c565b5b6000612eb284828501612e79565b91505092915050565b60008115159050919050565b612ed081612ebb565b82525050565b6000602082019050612eeb6000830184612ec7565b92915050565b600081519050919050565b600082825260208201905092915050565b60005b83811015612f2b578082015181840152602081019050612f10565b60008484015250505050565b6000601f19601f8301169050919050565b6000612f5382612ef1565b612f5d8185612efc565b9350612f6d818560208601612f0d565b612f7681612f37565b840191505092915050565b60006020820190508181036000830152612f9b8184612f48565b905092915050565b6000819050919050565b612fb681612fa3565b8114612fc157600080fd5b50565b600081359050612fd381612fad565b92915050565b600060208284031215612fef57612fee612e2c565b5b6000612ffd84828501612fc4565b91505092915050565b600073ffffffffffffffffffffffffffffffffffffffff82169050919050565b600061303182613006565b9050919050565b61304181613026565b82525050565b600060208201905061305c6000830184613038565b92915050565b61306b81613026565b811461307657600080fd5b50565b60008135905061308881613062565b92915050565b600080604083850312156130a5576130a4612e2c565b5b60006130b385828601613079565b92505060206130c485828601612fc4565b9150509250929050565b6000806000606084860312156130e7576130e6612e2c565b5b60006130f586828701613079565b935050602061310686828701613079565b925050604061311786828701612fc4565b9150509250925092565b60006020828403121561313757613136612e2c565b5b600061314584828501613079565b91505092915050565b600080fd5b600080fd5b7f4e487b7100000000000000000000000000000000000000000000000000000000600052604160045260246000fd5b61319082612f37565b810181811067ffffffffffffffff821117156131af576131ae613158565b5b80604052505050565b60006131c2612e22565b90506131ce8282613187565b919050565b600067ffffffffffffffff8211156131ee576131ed613158565b5b6131f782612f37565b9050602081019050919050565b82818337600083830152505050565b6000613226613221846131d3565b6131b8565b90508281526020810184848401111561324257613241613153565b5b61324d848285613204565b509392505050565b600082601f83011261326a5761326961314e565b5b813561327a848260208601613213565b91505092915050565b6000806040838503121561329a57613299612e2c565b5b60006132a885828601613079565b925050602083013567ffffffffffffffff8111156132c9576132c8612e31565b5b6132d585828601613255565b9150509250929050565b6000819050919050565b6132f2816132df565b82525050565b600060208201905061330d60008301846132e9565b92915050565b61331c81612fa3565b82525050565b60006020820190506133376000830184613313565b92915050565b61334681612ebb565b811461335157600080fd5b50565b6000813590506133638161333d565b92915050565b600080604083850312156133805761337f612e2c565b5b600061338e85828601613079565b925050602061339f85828601613354565b9150509250929050565b600080600080608085870312156133c3576133c2612e2c565b5b60006133d187828801613079565b94505060206133e287828801613079565b93505060406133f387828801612fc4565b925050606085013567ffffffffffffffff81111561341457613413612e31565b5b61342087828801613255565b91505092959194509250565b600067ffffffffffffffff82111561344757613446613158565b5b61345082612f37565b9050602081019050919050565b600061347061346b8461342c565b6131b8565b90508281526020810184848401111561348c5761348b613153565b5b613497848285613204565b509392505050565b600082601f8301126134b4576134b361314e565b5b81356134c484826020860161345d565b91505092915050565b600080604083850312156134e4576134e3612e2c565b5b60006134f285828601613079565b925050602083013567ffffffffffffffff81111561351357613512612e31565b5b61351f8582860161349f565b9150509250929050565b600080604083850312156135405761353f612e2c565b5b600061354e85828601613079565b925050602061355f85828601613079565b9150509250929050565b7f4e487b7100000000000000000000000000000000000000000000000000000000600052602260045260246000fd5b600060028204905060018216806135b057607f821691505b6020821081036135c3576135c2613569565b5b50919050565b7f4552433732313a20617070726f76616c20746f2063757272656e74206f776e6560008201527f7200000000000000000000000000000000000000000000000000000000000000602082015250565b6000613625602183612efc565b9150613630826135c9565b604082019050919050565b6000602082019050818103600083015261365481613618565b9050919050565b7f4552433732313a20617070726f76652063616c6c6572206973206e6f7420746f60008201527f6b656e206f776e6572206f7220617070726f76656420666f7220616c6c000000602082015250565b60006136b7603d83612efc565b91506136c28261365b565b604082019050919050565b600060208201905081810360008301526136e6816136aa565b9050919050565b7f4552433732313a2063616c6c6572206973206e6f7420746f6b656e206f776e6560008201527f72206f7220617070726f76656400000000000000000000000000000000000000602082015250565b6000613749602d83612efc565b9150613754826136ed565b604082019050919050565b600060208201905081810360008301526137788161373c565b9050919050565b7f46756e6374696f6e206d7573742062652063616c6c6564207468726f7567682060008201527f64656c656761746563616c6c0000000000000000000000000000000000000000602082015250565b60006137db602c83612efc565b91506137e68261377f565b604082019050919050565b6000602082019050818103600083015261380a816137ce565b9050919050565b7f46756e6374696f6e206d7573742062652063616c6c6564207468726f7567682060008201527f6163746976652070726f78790000000000000000000000000000000000000000602082015250565b600061386d602c83612efc565b915061387882613811565b604082019050919050565b6000602082019050818103600083015261389c81613860565b9050919050565b7f555550535570677261646561626c653a206d757374206e6f742062652063616c60008201527f6c6564207468726f7567682064656c656761746563616c6c0000000000000000602082015250565b60006138ff603883612efc565b915061390a826138a3565b604082019050919050565b6000602082019050818103600083015261392e816138f2565b9050919050565b7f4552433732313a20696e76616c696420746f6b656e2049440000000000000000600082015250565b600061396b601883612efc565b915061397682613935565b602082019050919050565b6000602082019050818103600083015261399a8161395e565b9050919050565b7f4552433732313a2061646472657373207a65726f206973206e6f74206120766160008201527f6c6964206f776e65720000000000000000000000000000000000000000000000602082015250565b60006139fd602983612efc565b9150613a08826139a1565b604082019050919050565b60006020820190508181036000830152613a2c816139f0565b9050919050565b7f496e697469616c697a61626c653a20636f6e747261637420697320616c72656160008201527f647920696e697469616c697a6564000000000000000000000000000000000000602082015250565b6000613a8f602e83612efc565b9150613a9a82613a33565b604082019050919050565b60006020820190508181036000830152613abe81613a82565b9050919050565b6000819050919050565b600060ff82169050919050565b6000819050919050565b6000613b01613afc613af784613ac5565b613adc565b613acf565b9050919050565b613b1181613ae6565b82525050565b6000602082019050613b2c6000830184613b08565b92915050565b7f4f776e61626c653a206e6577206f776e657220697320746865207a65726f206160008201527f6464726573730000000000000000000000000000000000000000000000000000602082015250565b6000613b8e602683612efc565b9150613b9982613b32565b604082019050919050565b60006020820190508181036000830152613bbd81613b81565b9050919050565b7f4f776e61626c653a2063616c6c6572206973206e6f7420746865206f776e6572600082015250565b6000613bfa602083612efc565b9150613c0582613bc4565b602082019050919050565b60006020820190508181036000830152613c2981613bed565b9050919050565b7f4552433732313a207472616e736665722066726f6d20696e636f72726563742060008201527f6f776e6572000000000000000000000000000000000000000000000000000000602082015250565b6000613c8c602583612efc565b9150613c9782613c30565b604082019050919050565b60006020820190508181036000830152613cbb81613c7f565b9050919050565b7f4552433732313a207472616e7366657220746f20746865207a65726f2061646460008201527f7265737300000000000000000000000000000000000000000000000000000000602082015250565b6000613d1e602483612efc565b9150613d2982613cc2565b604082019050919050565b60006020820190508181036000830152613d4d81613d11565b9050919050565b613d5d816132df565b8114613d6857600080fd5b50565b600081519050613d7a81613d54565b92915050565b600060208284031215613d9657613d95612e2c565b5b6000613da484828501613d6b565b91505092915050565b7f45524331393637557067726164653a206e657720696d706c656d656e7461746960008201527f6f6e206973206e6f742055555053000000000000000000000000000000000000602082015250565b6000613e09602e83612efc565b9150613e1482613dad565b604082019050919050565b60006020820190508181036000830152613e3881613dfc565b9050919050565b7f45524331393637557067726164653a20756e737570706f727465642070726f7860008201527f6961626c65555549440000000000000000000000000000000000000000000000602082015250565b6000613e9b602983612efc565b9150613ea682613e3f565b604082019050919050565b60006020820190508181036000830152613eca81613e8e565b9050919050565b7f496e697469616c697a61626c653a20636f6e7472616374206973206e6f74206960008201527f6e697469616c697a696e67000000000000000000000000000000000000000000602082015250565b6000613f2d602b83612efc565b9150613f3882613ed1565b604082019050919050565b60006020820190508181036000830152613f5c81613f20565b9050919050565b7f4552433732313a20617070726f766520746f2063616c6c657200000000000000600082015250565b6000613f99601983612efc565b9150613fa482613f63565b602082019050919050565b60006020820190508181036000830152613fc881613f8c565b9050919050565b7f4552433732313a207472616e7366657220746f206e6f6e20455243373231526560008201527f63656976657220696d706c656d656e7465720000000000000000000000000000602082015250565b600061402b603283612efc565b915061403682613fcf565b604082019050919050565b6000602082019050818103600083015261405a8161401e565b9050919050565b600081905092915050565b600061407782612ef1565b6140818185614061565b9350614091818560208601612f0d565b80840191505092915050565b60006140a9828561406c565b91506140b5828461406c565b91508190509392505050565b7f45524337323155524953746f726167653a2055524920736574206f66206e6f6e60008201527f6578697374656e7420746f6b656e000000000000000000000000000000000000602082015250565b600061411d602e83612efc565b9150614128826140c1565b604082019050919050565b6000602082019050818103600083015261414c81614110565b9050919050565b60008190508160005260206000209050919050565b60006020601f8301049050919050565b600082821b905092915050565b6000600883026141b57fffffffffffffffffffffffffffffffffffffffffffffffffffffffffffffffff82614178565b6141bf8683614178565b95508019841693508086168417925050509392505050565b60006141f26141ed6141e884612fa3565b613adc565b612fa3565b9050919050565b6000819050919050565b61420c836141d7565b614220614218826141f9565b848454614185565b825550505050565b600090565b614235614228565b614240818484614203565b505050565b5b818110156142645761425960008261422d565b600181019050614246565b5050565b601f8211156142a95761427a81614153565b61428384614168565b81016020851015614292578190505b6142a661429e85614168565b830182614245565b50505b505050565b600082821c905092915050565b60006142cc600019846008026142ae565b1980831691505092915050565b60006142e583836142bb565b9150826002028217905092915050565b6142fe82612ef1565b67ffffffffffffffff81111561431757614316613158565b5b6143218254613598565b61432c828285614268565b600060209050601f83116001811461435f576000841561434d578287015190505b61435785826142d9565b8655506143bf565b601f19841661436d86614153565b60005b8281101561439557848901518255600182019150602085019450602081019050614370565b868310156143b257848901516143ae601f8916826142bb565b8355505b6001600288020188555050505b505050505050565b7f596f752063616e2774207472616e73666572207468697320746f6b656e000000600082015250565b60006143fd601d83612efc565b9150614408826143c7565b602082019050919050565b6000602082019050818103600083015261442c816143f0565b9050919050565b7f455243313936373a206e657720696d706c656d656e746174696f6e206973206e60008201527f6f74206120636f6e747261637400000000000000000000000000000000000000602082015250565b600061448f602d83612efc565b915061449a82614433565b604082019050919050565b600060208201905081810360008301526144be81614482565b9050919050565b600081519050919050565b600082825260208201905092915050565b60006144ec826144c5565b6144f681856144d0565b9350614506818560208601612f0d565b61450f81612f37565b840191505092915050565b600060808201905061452f6000830187613038565b61453c6020830186613038565b6145496040830185613313565b818103606083015261455b81846144e1565b905095945050505050565b60008151905061457581612e62565b92915050565b60006020828403121561459157614590612e2c565b5b600061459f84828501614566565b91505092915050565b7f416464726573733a2064656c65676174652063616c6c20746f206e6f6e2d636f60008201527f6e74726163740000000000000000000000000000000000000000000000000000602082015250565b6000614604602683612efc565b915061460f826145a8565b604082019050919050565b60006020820190508181036000830152614633816145f7565b9050919050565b600081905092915050565b6000614650826144c5565b61465a818561463a565b935061466a818560208601612f0d565b80840191505092915050565b60006146828284614645565b915081905092915050565b7f4e487b7100000000000000000000000000000000000000000000000000000000600052601260045260246000fd5b7f4552433732313a206d696e7420746f20746865207a65726f2061646472657373600082015250565b60006146f2602083612efc565b91506146fd826146bc565b602082019050919050565b60006020820190508181036000830152614721816146e5565b9050919050565b7f4552433732313a20746f6b656e20616c7265616479206d696e74656400000000600082015250565b600061475e601c83612efc565b915061476982614728565b602082019050919050565b6000602082019050818103600083015261478d81614751565b905091905056fe416464726573733a206c6f772d6c6576656c2064656c65676174652063616c6c206661696c6564a26469706673582212207d88f3a44c3fa5b5ceae30c5ad564b24904d554e1666f0eb2817f997ba2b077764736f6c63430008110033",
  "linkReferences": {},
  "deployedLinkReferences": {}
}